:1000000004308A00C42C0000FF00030E8301A1000D
:100010000A08A0008A010408A2007708A300780853
:10002000A4007908A5007A08A60003170D08031399
:10003000A70003170F080313A80003170C080313E6
:10004000A90003170E080313AA00831383128B1E43
:100050002B280B194C28220884002308F7002408B9
:10006000F8002508F9002608FA00270803178D0074
:100070000313280803178F000313290803178C00A4
:1000800003132A0803178E00031320088A00210E89
:100090008300FF0E7F0E09008A110A12E9280A1058
:1000A0008A100A11820728340F34013406348E3046
:1000B000F7005B08F8005A08F900FA01F808031D78
:1000C0006B287908F800F9010830F702F808031DD9
:1000D0006B28F70173280310F81B7228F90DF80D2F
:1000E000F7036B28F81308005A080319E428E20004
:1000F0005E080319E428E207031885287F30E2022E
:10010000031CE4280319E42889288130E207031836
:10011000E4286208F700F801F901FA015B08E6003B
:10012000E6175C08E5005D08E4001830E200E30132
:10013000641CB2286108FA07031CA428F90A031DED
:10014000A428F80A0319E3176008F907031CAB2871
:10015000F80A0319E3175F08DC00DC175C08F807EE
:100160000318E317E30DF80CF90CFA0CE60CE50C98
:10017000E40C0310E20B97280130F7070318E4287A
:10018000F81BC928E60DFA0DF90DF80DF703031950
:10019000E428E61FDA28FA0A031DDA28F90A031D03
:1001A000DA28F80A031DDA28F80CF90CFA0CF70A19
:1001B0000319E4285B08E3005F08E306E31FE22875
:1001C000F817E828F813E828F701F801F901FA010F
:1001D00008002E08DB002D08DA0057207A08DD0021
:1001E0007908DC007808DB007708DA00AE30E1003F
:1001F000B830E0003830DF007B30DE007420AE081D
:10020000031D06292C082D02031C0D29C5124508C3
:1002100083168700831287161329C5124508831693
:10022000870083128712AC0A2C085C3C0319AC01CE
:100230000B118A110A122B280C10521DA0124C32DD
:10024000202AE536701DA0124C32200500000D104A
:100250004539F2373A10252664100A0050308400E0
:1002600083130008031941290630F800F701F70B42
:100270003729F80B36297B30F700F70B3D29800B27
:1002800034290800571846290812472908168316EA
:1002900008128312D7184E2988124F298816831600
:1002A00088128312571956290813572908178316DD
:1002B00008138312D7195E2988135F2988178316BC
:1002C0008813891083128914831689108312891068
:1002D00008008316091183120911D408031D72291D
:1002E00009117329091583160911A630F700F70BB8
:1002F00077290000891083128910550ED6000F301F
:10030000D6055608D700422155080F39D600D70028
:1003100042210800831608128312081283168812DD
:100320008312881283160813831208138316881306
:1003300083128813831609118312091183168910F9
:10034000831289100F30D0002E210130C6004608DC
:10035000033C031CB3290330D70042210530D000F1
:100360002E21C60AA7290230D7004221C60146081D
:10037000033C031CC42946084F20C700D40147088A
:10038000D5006921C60AB7298A110A12042D8030C6
:100390008318CF06D401D5014B08D3004F08D306EC
:1003A0004A080319B72AD200F7004E080319C02AD9
:1003B000D20203195C2A031C1A2A4F08D800D81746
:1003C0005008D7005108D600D5010310D80CD70C1F
:1003D000D60CD50CD20BE429D31FF1295414D42AFE
:1003E0005410521054164D3084008313E92A5412CD
:1003F000D31B042A521C0F2AD80CD70CD60CD50CB0
:10040000F70A0319CF2A0F2AD81B122A0310D50D79
:10041000D60DD70DD80DF7030319CF2A042A541788
:100420007C2A54134B08D300D31F182AD817C82A84
:10043000D813C82A4E08D200F7004A08D2024B0847
:10044000D800D8174C08D7004D08D600D5010310A6
:10045000D80CD70CD60CD50CD20B262AD31F332A96
:10046000D414D42AD4105210D416513084008313DB
:10047000E92AD412D31B462A521C512AD80CD70C75
:10048000D60CD50CF70A0319CF2A512AD81B542AA7
:100490000310D50DD60DD70DD80DF7030319CF2AAC
:1004A000462AD4177C2AD4134F08D300D31F5A2AC4
:1004B000D817C82AD813C82A4F08D800D817500808
:1004C000D7005108D600D31F692AD8135415D42A4F
:1004D0005411D50152104D3084008313E92AD31BE7
:1004E000922A4B08D300521C7C2AD80CD70CD60C6D
:1004F000D50CF70A0319CF2AD51F8D2AD60A031D5A
:100500008D2AD70A031D8D2AD80A031D8D2AD80CDF
:10051000D70CD60CF70A0319CF2A541B112AD41B67
:10052000532AB12A8030D806D81F9A2AD42A4F08D5
:10053000D300A72A4B08D300D808031DA72AD70841
:10054000031DA72AD608031DA72AF701C82AD81B0E
:10055000B12A0310D50DD60DD70DD80DF70BA72A4C
:10056000CF2AD31FB52AD817C82AD813C82A4E08AD
:10057000F7004F08D8005008D7005108D600C82A05
:100580004A08F7004B08D8004C08D7004D08D600A1
:100590005808F8005708F9005608FA00072BF70129
:1005A000F801F901FA01072BD501D609D709D809B5
:1005B000D509D50A031DE22AD60A031DE22AD70A65
:1005C0000319D80A5418F029D418322A5419682A61
:1005D000972A0008D607031CF32AD70A031DF32A1B
:1005E000D80A0319521484030008D707031CFB2AF6
:1005F000D80A0319521484030008801F803AD807D0
:1006000003185214541AF729D41A392A6F2A8A1156
:100610000A12B02D8E30F7004608F7024708F9009D
:100620004808F800F917F7080319212B0310F908F7
:10063000031D1D2BF8080319212BF90CF80CF70BDF
:10064000162BC71F282BF809F909F80A0319F90A0C
:100650008A110A12B92D1030CC00F701FA01C90C29
:10066000C80C031C392B4A08F7070318FA0A4B0871
:10067000FA07FA0CF70CF90CF80CCC0B2F2B08002E
:100680004F080C3A03194E2B063A0319562B073A1A
:100690000319562B053A03196C2B712BD401013029
:1006A000D50069210230D0002E21762B0130D000F8
:1006B0000230D100510B5D2B602B4030D200612BFA
:1006C000D20101305002D20752088038D300D40141
:1006D0005308D5006921762BD4011030D50069214B
:1006E000762B0130D4004F08D500692108000B0893
:1006F000C7008B13831603178C170C14000000001F
:1007000083120313C71B8B170318AE2B03170C0898
:100710007F390313C70003170D080313C80003171D
:100720000F080313C9004708CF00402348080317E8
:100730008D000313490803178F0003130B08CA0029
:100740008B13831603178C170C1400000000831200
:100750000313CA1B8B17C60BAE2BCD2B03170C0D27
:100760000E0D7F390313C70003170D080313C800CC
:1007700003170F080313C9004708CF004023480898
:1007800003178D000313490803178F008D0A0319FF
:100790008F0A03100313C60B772B0800CE01040841
:1007A000CD004E10831B4E14C71FDE2BCD174D1EE0
:1007B000CD0AC609C709C60A0319C70A470EF03889
:1007C000C900C907E23ECA00323ECC0047080F39D3
:1007D000CA07CA07CC07E93ECB00CB07CB07460EBA
:1007E0000F39CB07CC07CB0DCC0DCC09CC0D46086F
:1007F0000F39CC07C90D0730C8000A30CC07CB032E
:10080000031CFE2BCB07CA03031C022CCA07C90317
:10081000031C062CC907C803031C0A2C483084009B
:10082000831307304D054D1384034D05031D1F2C05
:100830004D1A840A4D1A1F2C2030F7003C2C8407D7
:100840004C30040203194D170008F700031D302C2B
:100850004D1B302C4D1A4A2CCD19302C20303B2CFE
:10086000CD1F382C2D30F70084034D13CD133C2CB5
:10087000CD154D123030F707C7010408C6004710E8
:10088000831B47147708CF00402346088400831356
:1008900047188317840A4D1F202C0800CE01040836
:1008A000CD004E10831B4E14C71F5E2CCD174D1E5E
:1008B000CD0AC609C709C60A0319C70A470EF03888
:1008C000C900C907E23ECA00323ECC0047080F39D2
:1008D000CA07CA07CC07E93ECB00CB07CB07460EB9
:1008E0000F39CB07CC07CB0DCC0DCC09CC0D46086E
:1008F0000F39CC07C90D0730C8000A30CC07CB032D
:10090000031C7E2CCB07CA03031C822CCA07C90315
:10091000031C862CC907C803031C8A2C483084009A
:10092000831307304D054D1384034D05031D9F2C84
:100930004D1A840A4D1A9F2C2030F700BC2C8407D6
:100940004C30040203194D170008F700031DB02CAA
:100950004D1BB02C4D1AC02CCD19B02C2030BB2C07
:10096000CD1FB82C2D30F70084034D13CD13BC2CB4
:10097000CD154D123030F70777080C1EBD2C9900AD
:10098000840A4D1FA02C080003081F398300813002
:1009900083169900A6309800903083129800AC011D
:1009A000AE01AD01B001AF01B201B101B401B301BB
:1009B000B601B501B801B701BA01B901BC01BB016B
:1009C000BE01BD01C0010130BF00C201C100C401B0
:1009D000C300FF30C50083161F149F141F159F11FD
:1009E00007309C0083131F109F141F119F110830A4
:1009F000F80083121F08C73978049F001030F700F1
:100A0000F70B002D00008A290A30D0002E21831612
:100A10001F1783121F179F1383169F1783121F140C
:100A200083160108C739083881000030F8000638FD
:100A300083129200FF3083169200831245114508FD
:100A400083168700831207110C3097007F309500C2
:100A50001708CF39203897008B16C0308B04103020
:100A6000F8001F08C73978049F000A30D0002E21F3
:100A70001F151F19392D83161E088312C600031077
:100A80001E0CB000460CAF000030F8001F08C7393C
:100A900078049F000A30D0002E211F151F194E2DFB
:100AA00083161E088312B1001E08B2000830F80039
:100AB0001F08C73978049F000A30D0002E211F1567
:100AC0001F19602D83161E088312C6001E08C7005A
:100AD000C70CC60CC70CC60CC70C46089500C70C43
:100AE000470C3039F7001708CF3977049700AB016E
:100AF0008B1BAB178B133208DB003108DA00572051
:100B0000AB1B8B17AB018B1BAB178B137A08DD006C
:100B10007908DC007808DB007708DA003730E1007C
:100B20001A30E0004030DF007A30DE007420AB1B6A
:100B30008B177A08C9007908C8007808C7007708B9
:100B4000C60083107A08CD007908CC007808CB0065
:100B50007708CA00D101D001CF018430CE00C72967
:100B60007A08C9007908C8007808C7007708C60065
:100B70000A2B7908B2007808B1002F083102B700BB
:100B80003208B8003008031C300FB8023808C9001A
:100B90003708C8004008CB003F08CA002B2379085B
:100BA000BA007808B9003808C9003708C8004208F8
:100BB000CB004108CA002B237808BB07790803182B
:100BC000790FBC072F083302C6003408C70030086D
:100BD000031C300FC7024708C9004608C800440874
:100BE000CB004308CA002B237908BE007808BD005B
:100BF0003008B4002F08B3003B083907C6003A0894
:100C0000C7003C0803183C0FC7073D084607B5005E
:100C10004708B6003E0803183E0FB6073608AE0078
:100C20003508AD001C3003178D0001308F00031014
:100C300005300313C6007723103084003208C70044
:100C40003108C600CE23203003178D0001308F00FD
:100C5000031007300313C6007723103084003008D8
:100C6000C7002F08C600CE232030CF0040230A3013
:100C7000CF004023273003178D0001308F00031071
:100C800008300313C6007723103084003808C700EB
:100C90003708C600CE232030CF0040230A30CF00D3
:100CA0004023103084003208C7003108C6004E24AB
:100CB00020300C1E592E9900103084003008C700D7
:100CC0002F08C6004E2420300C1E642E99001030D0
:100CD00084003808C7003708C6004E2420300C1E98
:100CE0006F2E99000A300C1E732E99000A30D00026
:060CF0002E212F2D6300F0
:02400E00323F3F
:00000001FF
;PIC16F877A
;CRC=DD4F  CREATED="09-abr-21 12:12"
